:100000000C94D5000C94FD000C94FD000C94FD00A4
:100010000C94FD000C94FD000C94FD000C94FD006C
:100020000C94FD000C94FD000C94FD000C94FD005C
:100030000C94FD000C94FD000C94FD000C94FD004C
:100040000C9431040C94FD000C94FF030C94D90320
:100050000C94FD000C94FD000C94FD000C94FD002C
:100060000C947B040C94FD0000407A10F35A00A01D
:10007000724E18090010A5D4E80000E87648170071
:1000800000E40B54020000CA9A3B000000E1F505B1
:10009000000080969800000040420F000000A086FB
:1000A00001000000102700000000E803000000002D
:1000B0006400000000000A000000000001000000D1
:1000C00000002C76D888DC674F0823DFC1DFAE59EB
:1000D000E1B1B796E5E3E453C63AE651997696E87E
:1000E000E6C28426EB898C9B62ED407C6FFCEFBC02
:1000F0009C9F40F2BAA56FA5F490055A2AF75C932D
:100100006B6CF9676DC11BFCE0E40D47FEF520E662
:10011000B500D0ED902E0300943577050080841E45
:10012000080000204E0A000000C80C333333330FA0
:10013000986E12831141EF8D2114893BE65516CF3D
:10014000FEE6DB18D1844B381BF77C1D901DA4BB49
:10015000E424203284725E228100C9F124ECA1E5FE
:100160003D2700000000250028002B0004040404A3
:100170000404040402020202020203030303030351
:10018000010204081020408001020408102001022E
:10019000040810200000000800020100000304070A
:1001A0000000000000000000A90511241FBECFEFD1
:1001B000D8E0DEBFCDBF22E0A6E3B1E001C01D92D2
:1001C000A63CB207E1F711E0A0E0B1E0E0EEF2E119
:1001D00002C005900D92A633B107D9F710E0C5ED26
:1001E000D0E004C02197FE010E946309C43DD107FD
:1001F000C9F70E94F4050C946E090C940000E5ED1B
:10020000F1E0A089B18982E08C93A485B5851C9228
:10021000A685B78580E18C93108EA489B58986E088
:100220008C93A289B3898C9180618C93A289B389C4
:100230008C9188608C93A289B3898C9180688C930F
:100240000288F389E02D80818F7D8083089590E07E
:10025000FC01EC56FE4F2491FC01E058FE4F349116
:10026000FC01E459FE4FE491EE23B1F1222339F170
:10027000233091F038F42130A9F0223001F584B513
:100280008F7D12C0273091F02830A1F02430B9F4CE
:10029000809180008F7D03C0809180008F77809354
:1002A00080000DC084B58F7784BD09C08091B000F7
:1002B0008F7703C08091B0008F7D8093B000F0E015
:1002C000EE0FFF1FEE59FE4FA591B4918FB7F89432
:1002D000EC913E2B3C938FBF0895CF92DF92EF922B
:1002E000FF920F931F932FB7F894C090D101D09035
:1002F000D201E090D301F090D4012FBFDC01CB01FB
:100300008C0D9D1DAE1DBF1D4FB7F8940091D101FE
:100310001091D2012091D3013091D4014FBF0C151F
:100320001D052E053F0528F080179107A207B3078A
:1003300058F71F910F91FF90EF90DF90CF900895A5
:10034000CF92DF92EF92FF920F931F93CF93DF93A1
:100350006C017A018B01C0E0D0E0CE15DF0589F099
:10036000D8016D918D01D601ED91FC910190F08144
:10037000E02DC6010995892B11F47E0102C021965A
:10038000ECCFC701DF91CF911F910F91FF90EF90BC
:10039000DF90CF900895E091CF01F091D001309798
:1003A00029F01092C8011092C70109940895CF93C3
:1003B000DF93AC01E0915601F09157013097F1F0D5
:1003C0009091CA018091C9019817C0F090E0292F3F
:1003D00030E02617370754F4D901AA5CBE4FEA0172
:1003E000C20FD31F88818C939F5FF1CF1092CA01F7
:1003F0006093C901CB01DF91CF910994DF91CF9137
:100400000895FC01538D448D252F30E0842F90E01A
:10041000821B930B541710F0CF96089501970895FF
:10042000FC01918D828D981761F0828DDF01A80FFC
:10043000B11D5D968C91928D9F5F9F73928F90E01E
:1004400008958FEF9FEF0895FC01918D828D98178D
:1004500031F0828DE80FF11D858D90E008958FEFCA
:100460009FEF0895FC01918D228D892F90E0805C93
:100470009F4F821B91098F739927089585ED91E015
:100480000E94320221E0892B09F420E0822F089596
:10049000FC01848DDF01A80FB11DA35ABF4F2C9121
:1004A000848D90E001968F739927848FA689B789F0
:1004B0002C93A089B1898C9180648C93938D848DC9
:1004C000981306C00288F389E02D80818F7D808398
:1004D0000895EF92FF920F931F93CF93DF93EC0158
:1004E00081E0888F9B8D8C8D981305C0E889F989F0
:1004F000808185FD24C0F62E0B8D10E00F5F1F4F0D
:100500000F731127E02E8C8DE8120CC00FB607FC7C
:10051000FACFE889F989808185FFF5CFCE010E9465
:100520004802F1CF8B8DFE01E80FF11DE35AFF4F1A
:10053000F0820B8FEA89FB898081806207C0EE8997
:10054000FF896083E889F98980818064808381E004
:1005500090E0DF91CF911F910F91FF90EF90089560
:10056000CF93DF93EC01888D8823C9F0EA89FB895A
:10057000808185FD05C0A889B9898C9186FD0FC051
:100580000FB607FCF5CF808185FFF2CFA889B98926
:100590008C9185FFEDCFCE010E944802E7CFDF911D
:1005A000CF91089580E090E0892B29F00E943E02CF
:1005B00081110C94000008953FB7F8948091C00118
:1005C0009091C101A091C201B091C30126B5A89B31
:1005D00005C02F3F19F00196A11DB11D3FBFBA2FD5
:1005E000A92F982F8827820F911DA11DB11DBC0135
:1005F000CD0142E0660F771F881F991F4A95D1F7FA
:10060000089585ED8093BC008091BC0084FDFCCFF3
:100610001092C601089540917801262F30E0240FF2
:10062000311D21323105DCF42091C6012430C9F49A
:10063000FC0180E090E0861758F430917801219118
:10064000DC01A85ABE4FA30FB11D2C930196F3CF26
:1006500080917801680F6093780180E0089581E0CF
:10066000089582E008950895E091CA018091C9013A
:10067000E81730F4F0E0EA5CFE4F808190E00895E6
:100680008FEF9FEF08959091CA018091C90198174B
:1006900050F4E92FF0E0EA5CFE4F208130E09F5FEC
:1006A0009093CA0102C02FEF3FEFC90108958091D6
:1006B000C90190E02091CA01821B91090895CF934E
:1006C000DF9300D0CDB7DEB7CB01642F49835A83C7
:1006D0000E940B034981842F5A81952F0F900F9010
:1006E000DF91CF910895CF93DF931F92CDB7DEB7FF
:1006F000698361E0CE0101960E940B0381E090E0E6
:100700000F90DF91CF910895089580E090E00895D3
:100710006115710579F0FB0101900020E9F731972F
:10072000AF01461B570BDC01ED91FC910280F38178
:10073000E02D099480E090E008950F931F93CF93EC
:10074000DF93CDB7DEB72A970FB6F894DEBF0FBEA2
:10075000CDBF8E010F5F1F4F23E046E060EA7AE1D4
:100760008FEC9FE30E94DD06E091BA02F091BB029C
:100770000280F381E02D4AE050E0B8018AEB92E07C
:100780000995B80185ED91E00E94880363E371E06B
:1007900085ED91E00E9488032A960FB6F894DEBF9B
:1007A0000FBECDBFDF91CF911F910F9108950E9491
:1007B00069091F920F920FB60F9211242F933F9346
:1007C0004F935F936F937F938F939F93AF93BF9359
:1007D000EF93FF9385ED91E00E944802FF91EF9126
:1007E000BF91AF919F918F917F916F915F914F9149
:1007F0003F912F910F900FBE0F901F9018951F9251
:100800000F920FB60F9211242F938F939F93EF9314
:10081000FF93E091E501F091E6018081E091EB0129
:10082000F091EC0182FD12C090818091EE018F5F0A
:100830008F732091EF01821751F0E091EE01F0E00B
:10084000EB52FE4F958F8093EE0101C08081FF91A6
:10085000EF919F918F912F910F900FBE0F901F904E
:1008600018951F920F920FB60F9211242F933F935A
:100870008F939F93AF93BF938091D1019091D201B9
:10088000A091D301B091D4013091BF0123E0230F97
:100890002D3720F40196A11DB11D05C026E8230FB8
:1008A0000296A11DB11D2093BF018093D1019093A9
:1008B000D201A093D301B093D4018091C001909153
:1008C000C101A091C201B091C3010196A11DB11D4A
:1008D0008093C0019093C101A093C201B093C30162
:1008E000BF91AF919F918F913F912F910F900FBE2C
:1008F0000F901F9018951F920F920FB60F92112410
:100900002F933F934F935F936F937F938F939F9317
:10091000AF93BF93EF93FF938091B900887F8036A8
:1009200009F49CC068F5883209F45BC090F480310A
:1009300009F454C038F4882309F4F6C0883009F467
:100940004DC0F6C0883109F44CC0803209F45DC056
:10095000EFC0803409F468C048F4803309F455C00E
:10096000883309F0E5C080939B01D8C0803509F435
:100970004FC0883509F45DC0883409F0D9C0D6C0AD
:10098000883909F4C7C0A8F4883709F467C038F477
:10099000883609F463C0803709F460C0C9C088385C
:1009A00009F4B8C0803909F45FC0803809F0C0C0CC
:1009B0005BC0803B09F486C038F4803A09F466C015
:1009C000883A09F47FC0B4C0803C09F4A7C0883CD1
:1009D00009F4A4C0883B09F48AC0AAC08091BE0172
:1009E00010C09091BD018091BC01981770F5E09105
:1009F000BD0181E08E0F8093BD01F0E0E456FE4F13
:100A000080818093BB0085EC86C080939B018EC063
:100A1000E091BD0181E08E0F8093BD018091BB000C
:100A2000F0E0E456FE4F80839091BD018091BC01BF
:100A30006EC0E091BD0181E08E0F8093BD01809179
:100A4000BB00F0E0E456FE4F80838091C501811128
:100A50006DC081E08093C40184EA61C083E080932B
:100A6000C60110929A01CFCF80919A01803208F08E
:100A700051C0E0919A0181E08E0F80939A0180919C
:100A8000BB00F0E0E658FE4F8083BDCF85EC80933D
:100A9000BC001092C60180919A01803230F4E0913E
:100AA0009A01F0E0E658FE4F108260919A0170E0E2
:100AB000E091CB01F091CC018AE791E00995109289
:100AC0009A0136C084E08093C60110927901109299
:100AD0007801E091CD01F091CE01099580917801E6
:100AE000811105C081E08093780110925801E09156
:100AF000790181E08E0F80937901F0E0E85AFE4F92
:100B000080818093BB009091790180917801981742
:100B100008F479CF85E88093BC000AC085EC809307
:100B2000BC001092C60104C010929B010E940103F8
:100B3000FF91EF91BF91AF919F918F917F916F91B5
:100B40005F914F913F912F910F900FBE0F901F908B
:100B50001895E5EDF1E01382128288EE93E0A0E0B3
:100B6000B0E084839583A683B78324E031E03183AA
:100B7000208325EC30E03587248724EC30E037876C
:100B8000268720EC30E0318B208B21EC30E0338B5A
:100B9000228B22EC30E0358B248B26EC30E0378B37
:100BA000268B118E128E138E148EE2E7F2E01682DF
:100BB000178210861186128613861486158616866D
:100BC0001786108A118A128A138A148A158AEAEB08
:100BD000F2E01382128284839583A683B78386E131
:100BE00091E0918380830895789484B5826084BD78
:100BF00084B5816084BD85B5826085BD85B5816021
:100C000085BD80916E00816080936E00109281009E
:100C10008091810082608093810080918100816059
:100C2000809381008091800081608093800080911A
:100C3000B10084608093B1008091B00081608093A6
:100C4000B00080917A00846080937A0080917A006D
:100C5000826080937A0080917A00816080937A002C
:100C600080917A00806880937A001092C10010927F
:100C7000B6021092B7021092B8021092B902109206
:100C8000740210927502109276021092770268EB4D
:100C90007BE080E090E00E946D0185ED91E0909313
:100CA000B5028093B4020E94FF002FB7F8948091A0
:100CB000D1019091D201A091D301B091D4012FBF65
:100CC0008093740290937502A0937602B09377029A
:100CD00064E271E08091B4029091B5020E948803B1
:100CE0006AE070E080E090E00E946D01C1E0C09396
:100CF00088020E94FF0080E18093BA008BEC91E0B3
:100D00009093CE018093CD0187ED91E09093CC013B
:100D10008093CB011092CA011092C9011092C801B0
:100D20001092C7011092C601C093C5011092C40170
:100D300082E10E94270183E10E9427018091B9008E
:100D40008E7F8093B9008091B9008D7F8093B90028
:100D500088E48093B80085E48093BC008DE993E03B
:100D60009093D0018093CF010E94DC024B015C0183
:100D700084E6C82ED12CE12CF12C0E94DC02DC018F
:100D8000CB0188199909AA09BB09883E9340A1059E
:100D9000B10558F021E0C21AD108E108F10888EE47
:100DA000880E83E0981EA11CB11CC114D104E1047B
:100DB000F10419F70E94D202D7CFEF920F931F933D
:100DC000CF93DF93E80147FD02C034E001C034E176
:100DD000E42F440FFF0BF7FF03C0F195E195F109F4
:100DE000E32E022F2E2FAE010E94FD06CE01DF91D1
:100DF000CF911F910F91EF9008954F925F926F9254
:100E00007F929F92AF92BF92CF92DF92EF92FF922A
:100E10000F931F93CF93DF93CDB7DEB729970FB60C
:100E2000F894DEBF0FBECDBF6A01122FB02E2BE3A8
:100E3000201720F0FF24F394F00E02C0BCE3FB2E39
:100E40000F2D27E0AE014F5F5F4F0E948B08AC0172
:100E50008981982F9970913031F0E1FC06C0E0FE55
:100E600006C090E205C09DE203C09BE201C090E095
:100E7000EE2DE07183FF3CC0911102C083E001C000
:100E800084E0811718F4212F281B01C020E0E11114
:100E90000BC0F601822F30E2882319F03193815084
:100EA000FBCFC20ED11C20E0992329F0D6019C93E0
:100EB000F60131966F01C6010396E2FE0AC03EE4D8
:100EC000D6013C9341E411964C93119712963C93B2
:100ED00006C03EE6F601308341E641833283FC01E1
:100EE000322F40E2332309F442C041933150FACF0C
:100EF00082FF44C0911102C083E001C084E08117E9
:100F000018F4212F281B01C020E0E1110BC0F601CD
:100F1000822F30E2882319F031938150FBCFC20E2B
:100F2000D11C20E0992329F0D6019C93F60131963B
:100F30006F01C6010396E2FE0BC039E4D6013C9373
:100F40003EE411963C93119736E412963C9307C009
:100F500039E6F60130833EE6318336E63283FC0122
:100F6000322F40E2332319F041933150FBCFFC0183
:100F7000E20FF11D10828EEF9FEFB7C0F1E09111EB
:100F800001C0F0E06F2F70E01416150624F49A01EA
:100F90002F5F3F4F02C021E030E0260F371FBB20FC
:100FA00029F06B2D70E06F5F7F4F02C060E070E052
:100FB000260F371F612F70E0261737071CF4121B0E
:100FC000212F01C020E03E2D387159F4D601322F77
:100FD00060E2332319F06D933150FBCFC20ED11C68
:100FE00020E0FF2331F0D6019C93B6016F5F7F4F65
:100FF0006B01E1110BC0F601922F30E3992319F038
:1010000031939150FBCFC20ED11C20E09F2D940F45
:101010003A81782F7071A72E84FF03C0313309F411
:101020009150191624F4993018F098E001C091E01D
:10103000E42F852F57FF02C0E0E080E06E2F782F6D
:10104000E0E0F0E0AEE29A2E3A01691A71082A0156
:10105000461A570A0B2D10E01195019511096F3FA3
:101060008FEF780729F4D6019C92C60101966C0196
:101070004617570784F0661677066CF47F01E40C78
:10108000F51CA1E0B0E0AC0FBD1FEA0EFB1ED701BE
:101090001196BC9002C090E3B92E6150710931964F
:1010A000C60101967C016017710724F0D601BC923D
:1010B0006C01D5CF6417750741F4363320F435330E
:1010C00021F4A11002C081E3B82EF601B082F7012D
:1010D000822F90E2882319F091938150FBCFF70182
:1010E000E20FF11D108280E090E029960FB6F8948F
:1010F000DEBF0FBECDBFDF91CF911F910F91FF904B
:10110000EF90DF90CF90BF90AF909F907F906F90C7
:101110005F904F900895283008F027E03327DA01D8
:10112000990F311D87FD916000966105710539F4B5
:1011300032602E5F3D9330E32A95E1F708959F3F9B
:1011400030F080387105610509F03C5F3C5F3D93EC
:10115000913008F08068911DDF93CF931F930F9318
:10116000FF92EF92192F987F9695E92F9695969575
:10117000E90FFF27EE53FF4F99273327EE24FF2473
:10118000A701E70105900894079428F4360FE71E9D
:10119000F81E491F511D660F771F881F991F06945F
:1011A000A1F70590079428F4E70EF81E491F561F73
:1011B000C11D770F881F991F661F0694A1F7059020
:1011C000079428F4F80E491F561FC71FD11D880F1A
:1011D000991F661F771F0694A1F70590079420F4C6
:1011E000490F561FC71FD81F990F661F771F881FEB
:1011F0000694A9F784911095177041F0D695C7957C
:1012000057954795F794E7941A95C1F7E8E6F0E00B
:1012100068941590159135916591959105907FE2AF
:101220007395E118F10A430B560BC90BD009C0F7AF
:10123000E10CF11E431F561FC91FD01D7EF47033F1
:1012400011F48A95E6CFE894015030F0080F0AF4C3
:101250000027021708F4202F2395022F7A3328F055
:1012600079E37D932A95E9F710C07D932A9589F655
:10127000069497956795379517951794E118F10A95
:10128000430B560BC90BD00998F023957E917395AB
:101290007A3308F070E37C932013B8F77E91706185
:1012A0007D9330F0839571E37D9370E32A95E1F7A8
:1012B0001124EF90FF900F911F91CF91DF9199270B
:1012C00087FD90950895EE0FFF1F0590F491E02D96
:1012D000099481E090E0F8940C946E09F894FFCFA3
:1012E000000000006902A0010102B00232021002F7
:1012F00024020000000073035F03850333035703D8
:1013000043033403564D4450565F317C315F564D94
:061310004450560D0A00D6
:00000001FF
