:100000000C9458000C9480000C9480000C94800098
:100010000C9480000C9480000C9480000C94800060
:100020000C9480000C9480000C9480000C94800050
:100030000C9480000C9480000C9480000C94800040
:100040000C94F8030C9480000C94C6030C94A00349
:100050000C9480000C9480000C9480000C94800020
:100060000C9442040C94800000000000250028003D
:100070002B00040404040404040402020202020229
:10008000030303030303010204081020408001025C
:1000900004081020010204081020000000080002DB
:1000A00001000003040700000000000000007005CC
:1000B00011241FBECFEFD8E0DEBFCDBF22E0A6E304
:1000C000B1E001C01D92A63CB207E1F711E0A0E04B
:1000D000B1E0E6EAFDE002C005900D92A633B1075B
:1000E000D9F710E0C8E5D0E004C02197FE010E94D6
:1000F000C606C735D107C9F70E94BB050C94D106C7
:100100000C940000E5EDF1E0A089B18982E08C93C8
:10011000A485B5851C92A685B78580E18C93108E49
:10012000A489B58986E08C93A289B3898C9180617A
:100130008C93A289B3898C9188608C93A289B389AE
:100140008C9180688C930288F389E02D80818F7D6B
:100150008083089590E0FC01E656FF4F2491FC0156
:10016000EA57FF4F3491FC01EE58FF4FE491EE2324
:10017000B1F1222339F1233091F038F42130A9F084
:10018000223001F584B58F7D12C0273091F02830E0
:10019000A1F02430B9F4809180008F7D03C080915C
:1001A00080008F77809380000DC084B58F7784BDE9
:1001B00009C08091B0008F7703C08091B0008F7D1F
:1001C0008093B000F0E0EE0FFF1FE859FF4FA591BC
:1001D000B4918FB7F894EC913E2B3C938FBF089568
:1001E000CF92DF92EF92FF920F931F932FB7F89465
:1001F000C090D101D090D201E090D301F090D40111
:100200002FBFDC01CB018C0D9D1DAE1DBF1D4FB757
:10021000F8940091D1011091D2012091D301309135
:10022000D4014FBF0C151D052E053F0528F0801782
:100230009107A207B30758F71F910F91FF90EF9016
:10024000DF90CF900895CF92DF92EF92FF920F93BD
:100250001F93CF93DF936C017A018B01C0E0D0E054
:10026000CE15DF0589F0D8016D918D01D601ED9194
:10027000FC910190F081E02DC6010995892B11F4C4
:100280007E0102C02196ECCFC701DF91CF911F9173
:100290000F91FF90EF90DF90CF900895E091CF0104
:1002A000F091D001309729F01092C8011092C70147
:1002B00009940895CF93DF93AC01E0915601F0913A
:1002C00057013097F1F09091CA018091C9019817B8
:1002D000C0F090E0292F30E02617370754F4D901F9
:1002E000AA5CBE4FEA01C20FD31F88818C939F5F27
:1002F000F1CF1092CA016093C901CB01DF91CF9178
:100300000994DF91CF910895FC01538D448D252FE1
:1003100030E0842F90E0821B930B541710F0CF969F
:10032000089501970895FC01918D828D981761F0D1
:10033000828DDF01A80FB11D5D968C91928D9F5F1C
:100340009F73928F90E008958FEF9FEF0895FC01C7
:10035000918D828D981731F0828DE80FF11D858D7A
:1003600090E008958FEF9FEF0895FC01918D228D0D
:10037000892F90E0805C9F4F821B91098F73992792
:10038000089585ED91E00E94B50121E0892B09F4E3
:1003900020E0822F0895FC01848DDF01A80FB11D9C
:1003A000A35ABF4F2C91848D90E001968F739927AB
:1003B000848FA689B7892C93A089B1898C91806498
:1003C0008C93938D848D981306C00288F389E02D59
:1003D00080818F7D80830895EF92FF920F931F930A
:1003E000CF93DF93EC0181E0888F9B8D8C8D9813E8
:1003F00005C0E889F989808185FD24C0F62E0B8D22
:1004000010E00F5F1F4F0F731127E02E8C8DE81245
:100410000CC00FB607FCFACFE889F989808185FF07
:10042000F5CFCE010E94CB01F1CF8B8DFE01E80FFD
:10043000F11DE35AFF4FF0820B8FEA89FB8980811F
:10044000806207C0EE89FF896083E889F98980812D
:100450008064808381E090E0DF91CF911F910F91C4
:10046000FF90EF900895CF93DF93EC01888D882360
:10047000C9F0EA89FB89808185FD05C0A889B98911
:100480008C9186FD0FC00FB607FCF5CF808185FFEC
:10049000F2CFA889B9898C9185FFEDCFCE010E945A
:1004A000CB01E7CFDF91CF91089580E090E0892BD9
:1004B00029F00E94C10181110C94000008953FB7FA
:1004C000F8948091C0019091C101A091C201B091B6
:1004D000C30126B5A89B05C02F3F19F00196A11DA9
:1004E000B11D3FBFBA2FA92F982F8827820F911DCA
:1004F000A11DB11DBC01CD0142E0660F771F881F11
:10050000991F4A95D1F7089585ED8093BC0080919D
:10051000BC0084FDFCCF1092C60108954091780183
:10052000262F30E0240F311D21323105DCF42091DB
:10053000C6012430C9F4FC0180E090E0861758F42D
:10054000309178012191DC01A85ABE4FA30FB11D53
:100550002C930196F3CF80917801680F6093780116
:1005600080E0089581E0089582E008950895E09183
:10057000CA018091C901E81730F4F0E0EA5CFE4F4F
:10058000808190E008958FEF9FEF08959091CA01C8
:100590008091C901981750F4E92FF0E0EA5CFE4F12
:1005A000208130E09F5F9093CA0102C02FEF3FEFA0
:1005B000C90108958091C90190E02091CA01821B70
:1005C00091090895CF93DF9300D0CDB7DEB7CB016B
:1005D000642F49835A830E948E024981842F5A8155
:1005E000952F0F900F90DF91CF910895CF93DF93C8
:1005F0001F92CDB7DEB7698361E0CE0101960E94FC
:100600008E0281E090E00F90DF91CF9108950895E0
:1006100080E090E008956115710579F0FB0101908B
:100620000020E9F73197AF01461B570BDC01ED9134
:10063000FC910280F381E02D099480E090E0089520
:100640004F925F926F927F92EF92FF920F931F9360
:10065000CF93DF93CDB7DEB7A1970FB6F894DEBF87
:100660000FBECDBF7C01FA01CB0119A2223008F4E4
:100670002AE08E010F5D1F4F422E512C612C712CF0
:10068000BF01A30192010E94A406F901CA01015011
:1006900011096A3014F4605D01C0695CD8016C9383
:1006A000232B242B252B61F7B801C7010E940B03D4
:1006B000A1960FB6F894DEBF0FBECDBFDF91CF91EC
:1006C0001F910F91FF90EF907F906F905F904F90F0
:1006D0000895CF93DF9300D0CDB7DEB789E189834A
:1006E0008EE08A8342E050E0BE016F5F7F4F8AEB6D
:1006F00092E00E94E202498150E060E070E02AE06E
:1007000085ED91E00E94200363E371E085ED91E0C7
:100710000E940B034A8150E060E070E02AE085ED22
:1007200091E00E94200363E371E085ED91E00E9477
:100730000B030F900F90DF91CF9108950E94CC068C
:100740001F920F920FB60F9211242F933F934F9346
:100750005F936F937F938F939F93AF93BF93EF9329
:10076000FF9385ED91E00E94CB01FF91EF91BF9146
:10077000AF919F918F917F916F915F914F913F9139
:100780002F910F900FBE0F901F9018951F920F92F0
:100790000FB60F9211242F938F939F93EF93FF9394
:1007A000E091E501F091E6018081E091EB01F091AB
:1007B000EC0182FD12C090818091EE018F5F8F73FA
:1007C0002091EF01821751F0E091EE01F0E0EB5241
:1007D000FE4F958F8093EE0101C08081FF91EF91D4
:1007E0009F918F912F910F900FBE0F901F90189592
:1007F0001F920F920FB60F9211242F933F938F9356
:100800009F93AF93BF938091D1019091D201A0911A
:10081000D301B091D4013091BF0123E0230F2D37D4
:1008200020F40196A11DB11D05C026E8230F0296F4
:10083000A11DB11D2093BF018093D1019093D201DE
:10084000A093D301B093D4018091C0019091C101D4
:10085000A091C201B091C3010196A11DB11D809369
:10086000C0019093C101A093C201B093C301BF9195
:10087000AF919F918F913F912F910F900FBE0F904D
:100880001F9018951F920F920FB60F9211242F935D
:100890003F934F935F936F937F938F939F93AF9308
:1008A000BF93EF93FF938091B900887F803609F45E
:1008B0009CC068F5883209F45BC090F4803109F47B
:1008C00054C038F4882309F4F6C0883009F44DC0C8
:1008D000F6C0883109F44CC0803209F45DC0EFC025
:1008E000803409F468C048F4803309F455C0883373
:1008F00009F0E5C080939B01D8C0803509F44FC052
:10090000883509F45DC0883409F0D9C0D6C088396B
:1009100009F4C7C0A8F4883709F467C038F48836EA
:1009200009F463C0803709F460C0C9C0883809F48D
:10093000B8C0803909F45FC0803809F0C0C05BC01E
:10094000803B09F486C038F4803A09F466C0883ADE
:1009500009F47FC0B4C0803C09F4A7C0883C09F406
:10096000A4C0883B09F48AC0AAC08091BE0110C00F
:100970009091BD018091BC01981770F5E091BD0187
:1009800081E08E0F8093BD01F0E0E456FE4F808140
:100990008093BB0085EC86C080939B018EC0E09164
:1009A000BD0181E08E0F8093BD018091BB00F0E01E
:1009B000E456FE4F80839091BD018091BC016EC0D2
:1009C000E091BD0181E08E0F8093BD018091BB005D
:1009D000F0E0E456FE4F80838091C50181116DC027
:1009E00081E08093C40184EA61C083E08093C60102
:1009F00010929A01CFCF80919A01803208F051C0B5
:100A0000E0919A0181E08E0F80939A018091BB0062
:100A1000F0E0E658FE4F8083BDCF85EC8093BC00AC
:100A20001092C60180919A01803230F4E0919A01CF
:100A3000F0E0E658FE4F108260919A0170E0E0917C
:100A4000CB01F091CC018AE791E0099510929A01CF
:100A500036C084E08093C60110927901109278012B
:100A6000E091CD01F091CE0109958091780181113D
:100A700005C081E08093780110925801E0917901DE
:100A800081E08E0F80937901F0E0E85AFE4F80817B
:100A90008093BB009091790180917801981708F4B8
:100AA00079CF85E88093BC000AC085EC8093BC00B8
:100AB0001092C60104C010929B010E948402FF9113
:100AC000EF91BF91AF919F918F917F916F915F91C6
:100AD0004F913F912F910F900FBE0F901F9018953F
:100AE000E5EDF1E01382128288EE93E0A0E0B0E041
:100AF00084839583A683B78324E031E03183208308
:100B000025EC30E03587248724EC30E037872687D2
:100B100020EC30E0318B208B21EC30E0338B228BCA
:100B200022EC30E0358B248B26EC30E0378B268BA3
:100B3000118E128E138E148EE2E7F2E01682178267
:100B400010861186128613861486158616861786D9
:100B5000108A118A128A138A148A158AEAEBF2E043
:100B60001382128284839583A683B78386E191E002
:100B7000918380830895789484B5826084BD84B520
:100B8000816084BD85B5826085BD85B5816085BD88
:100B900080916E00816080936E0010928100809140
:100BA00081008260809381008091810081608093C8
:100BB0008100809180008160809380008091B100ED
:100BC00084608093B1008091B00081608093B00018
:100BD00080917A00846080937A0080917A008260AC
:100BE00080937A0080917A00816080937A0080916E
:100BF0007A00806880937A001092C1001092B60249
:100C00001092B7021092B8021092B90210927402B8
:100C100010927502109276021092770268EB7BE0D8
:100C200080E090E00E94F00085ED91E09093B502A5
:100C30008093B4020E9482002FB7F8948091D10172
:100C40009091D201A091D301B091D4012FBF809394
:100C5000740290937502A0937602B093770264E2D7
:100C600071E08091B4029091B5020E940B036AE09A
:100C700070E080E090E00E94F000C1E0C093880244
:100C80000E94820080E18093BA008EE491E090930C
:100C9000CE018093CD018AE591E09093CC018093C1
:100CA000CB011092CA011092C9011092C801109292
:100CB000C7011092C601C093C5011092C40182E120
:100CC0000E94AA0083E10E94AA008091B9008E7F51
:100CD0008093B9008091B9008D7F8093B90088E43A
:100CE0008093B80085E48093BC0089E693E09093FC
:100CF000D0018093CF010E945F024B015C0184E62A
:100D0000C82ED12CE12CF12C0E945F02DC01CB011A
:100D100088199909AA09BB09883E9340A105B10524
:100D200058F021E0C21AD108E108F10888EE880ED7
:100D300083E0981EA11CB11CC114D104E104F1048C
:100D400019F70E945502D7CFA1E21A2EAA1BBB1B8E
:100D5000FD010DC0AA1FBB1FEE1FFF1FA217B30787
:100D6000E407F50720F0A21BB30BE40BF50B661F9D
:100D7000771F881F991F1A9469F760957095809561
:100D800090959B01AC01BD01CF010895EE0FFF1FAF
:100D90000590F491E02D099481E090E0F8940C9492
:060DA000D106F894FFCF1C
:100DA60000000000EC01230184013302B501930128
:100DB600A70100000000F602E2020803B602DA020A
:100DC600C602B702564D4450565F317C315F564DD0
:060DD6004450560D0A0016
:107E0000112484B714BE81FFF0D085E080938100F7
:107E100082E08093C00088E18093C10086E0809377
:107E2000C20080E18093C4008EE0C9D0259A86E02C
:107E300020E33CEF91E0309385002093840096BBD3
:107E4000B09BFECF1D9AA8958150A9F7CC24DD24C4
:107E500088248394B5E0AB2EA1E19A2EF3E0BF2EE7
:107E6000A2D0813461F49FD0082FAFD0023811F036
:107E7000013811F484E001C083E08DD089C08234E0
:107E800011F484E103C0853419F485E0A6D080C0E4
:107E9000853579F488D0E82EFF2485D0082F10E0AE
:107EA000102F00270E291F29000F111F8ED06801E7
:107EB0006FC0863521F484E090D080E0DECF843638
:107EC00009F040C070D06FD0082F6DD080E0C81688
:107ED00080E7D80618F4F601B7BEE895C0E0D1E017
:107EE00062D089930C17E1F7F0E0CF16F0E7DF06D8
:107EF00018F0F601B7BEE89568D007B600FCFDCFD4
:107F0000A601A0E0B1E02C9130E011968C91119780
:107F100090E0982F8827822B932B1296FA010C0160
:107F200087BEE89511244E5F5F4FF1E0A038BF0790
:107F300051F7F601A7BEE89507B600FCFDCF97BE46
:107F4000E89526C08437B1F42ED02DD0F82E2BD052
:107F50003CD0F601EF2C8F010F5F1F4F84911BD097
:107F6000EA94F801C1F70894C11CD11CFA94CF0C13
:107F7000D11C0EC0853739F428D08EE10CD085E9AC
:107F80000AD08FE07ACF813511F488E018D01DD067
:107F900080E101D065CF982F8091C00085FFFCCF94
:107FA0009093C60008958091C00087FFFCCF809118
:107FB000C00084FD01C0A8958091C6000895E0E648
:107FC000F0E098E1908380830895EDDF803219F02E
:107FD00088E0F5DFFFCF84E1DECF1F93182FE3DFCA
:107FE0001150E9F7F2DF1F91089580E0E8DFEE27F6
:047FF000FF270994CA
:027FFE00040479
:0400000300007E007B
:00000001FF